:020000020000FC
:10000000A0E0BFE5E1E042E02FC0F999FECFA2BD3C
:10001000B1BDC0BDFA9AF99A0895F999F6CFE2BD3B
:10002000B1BDD0BDFA9AF99A01D00895F999EDCFF2
:1000300042BDB1BD31E030BDFA9AF99A0895F999FF
:1000400005C042BDB1BDF89A30B50895F999FECF0B
:10005000A2BDB1BDF89AC0B50895F999F7CFE2BD38
:10006000B1BDF89AD0B508950FEF0DBF08E00EBFEF
:100070000FEF0AB9389839983A983B983C98209AEB
:10008000219A229A239AA0EC2898299A2A9A2B9AA4
:10009000ABB930990DC031990DC0FBCF29982A9882
:1000A0002B989BD0D3DF9C2FD8DF7D2F60E030C012
:1000B00061E02CC060E02AC0329957C03399D4CF98
:1000C00030990EC0319917C03499E8CF089533990B
:1000D000CBCF309905C031990EC03499DFCF45C0E0
:1000E0002898613021F161E043E6491B942F49E0F3
:1000F000471B742F1CC028986030C9F060E043E6AD
:10010000491B942F49E0471B742F11C0772799276B
:10011000172F0F93812F3BD0B02C8F91492E65D094
:100120000F93242D47D0902C2F9144D0A02C52E334
:1001300029982A982B9A9BB850D029982B982A9ABC
:10014000ABB84BD02A982B98299ABBB846D05A9571
:10015000C92F5BDFD72F61DFAFDF51F7939594365F
:10016000E9F673957A3099F600C0289A29982A986A
:100170002B9A9BB832D029982B982A9AABB82DD0BD
:100180002A982B98299ABBB8289827D0A0CF6130FD
:1001900019F0603041F008952224F1E0ECEFE80F0F
:1001A000F21DC89508952224F2E0E6E0E80FF21D62
:1001B000C8950895613019F0603041F00895222407
:1001C000F1E0ECEFE20FF21DC89508952224F2E071
:1001D000E6E0E20FF21DC895089504E11FEF1A95BD
:1001E000F1F70A95D9F7000008950AE0302E00E0F3
:1001F000431418F003954318FBCF0895C0F9A4B039
:10020000999282F880909080F8829299B0A4F9C077
:00000001FF
